:02000000F528E1
:08000800F52882070C282E28C0
:10001000522870289028B128110882071234203401
:100020001334DF34433420346134743420341834CE
:100030003A34193420341134203416344C342034FA
:1000400017344834203473346534743420346134C4
:10005000743420341434DF344334103411088207EC
:10006000123420341334DF34433420346134743494
:10007000203418343A341934203411345434683468
:10008000653472346D346F34733474346134743461
:100090003A3420341B3420342034203420342034AB
:1000A0002034103411088207123420341334DF3422
:1000B0004334203461347434203418343A341934DD
:1000C00020341134413464346A342E3420345334AF
:1000D000703461346E343A3420341B34203410349C
:1000E00011088207123420341334DF3443342034AF
:1000F00061347434203418343A34193420341134CF
:10010000413464346A342E3420344D3469346E34CE
:1001100075347434653473343A3420341A341034FA
:1001200011088207123420341334DF34433420346E
:1001300061347434203418343A341934203411348E
:10014000413464346A342E34203448346F34753486
:10015000723473343A3420341A3420342034203446
:100160001034110882071234203442347934203498
:1001700041346434693420344C3469346E3464342A
:1001800065346E342034203420342034203411344B
:1001900020344A3475346C347934203438342C3477
:1001A0002034313439343934383420342034203454
:1001B00020342034203410340F301E058207F429F7
:1001C000F529F829FB29292A342A3F2A422A0E2A0E
:1001D000202A452A4E2AAA309400180882073A2974
:1001E0003E2956296E2986299C29F0308600FC304C
:1001F000850083168601E3308500D73081008312A5
:100200009701971617170F30A2005030930009304E
:100210009200AA309400053098005922E821F72274
:100220002823AA229719D9220323991F14291223BC
:100230008101C92107301705031DEB201711971005
:100240001710E8210B1D22290B11920B2A290930C6
:100250009200AA22930B34295030930003230530D7
:10026000991F980012232823940B1929AA3094006F
:1002700098011929980A0D089D00080097189D0AF1
:1002800017189D030A301D02031C9D0A1E301D0213
:1002900003189D0311309B001D089C008D009E22B9
:1002A000171D0800980A0E089D00080097189D0A5F
:1002B00017189D0301301D02031C9D0A04301D0206
:1002C00003189D03171D080010309B001D089C009B
:1002D0008E009E22980A10089D000800A0211D088B
:1002E000F93C031983211D08603C03199D01171D6A
:1002F000080001309B001D089C0090009E22980A77
:100300000F089D00080059309D000800A0211D081D
:10031000F93C031999211D08243C03199D01171D5F
:10032000080002309B001D089C008F009E2298014F
:10033000080023309D000800171D080098010800E0
:100340009718A5211718B121080007301D07831C35
:10035000AF299D0E9D0A9D0EF0309D0508009D0A57
:1003600008000F301D078318BC299D0E9D031D0E2C
:10037000F03909389D0008009D0308000F308316EE
:10038000860083120613060506178316860183125C
:100390000800BE21A108031DCF29A10008002102E9
:1003A000031DE22921082202031DD829A30BE229FB
:1003B0000430A3002108A200A21DE429221D171465
:1003C000A21C9714A1010800171597101710E22915
:1003D000910118080520910A9E00F039103A03197E
:1003E000DC281E087222E9290800C0307A22E92997
:1003F00080307A22E9290C0884231F088C232008E6
:10040000303872221F08303872222E30722230307B
:10041000971F72223530971B7222E929971D122AE5
:10042000213072220F0E0F3903191D2A3038722223
:100430000F080F3930387222E92920307222182A29
:10044000100E0F393038722210080F3930387222EE
:10045000E9290D0884231F088C23200830387222D4
:100460001F0830387222E9290E0884231F088C23C4
:100470002008303872221F0830387222E9292030D3
:100480007222E92920307222E9291D0E0F393038F5
:1004900072221D080F3930387222E9291D08842381
:1004A0001F088C232008303872221F08303872222F
:1004B000E9297F2317120330862276230330862210
:1004C0007123033086227123023086227123283063
:1004D0007A2208307A2201307A2206307A220C30D1
:1004E0007A22080017169E001E0E86221E088622FB
:1004F0007123080017129E001E0E86221E088622F7
:100500007123FC301E07031C76230800F038860098
:10051000171E06128612861608003123D0309A0064
:1005200048231B089A0048233123D1309A004823DE
:100530005023442319089C00392308003123D0306C
:100540009A0048231B089A0048231C089A00482355
:100550003923080000309B008D229C1BD72A1130C4
:100560009B008D220A301C02031CD72A1E301C025D
:100570000318D72A1C088D0010309B008D220130F3
:100580001C02031CD72A04301C020318D72A1C089B
:100590008E0002309B008D221C1BD72A1C088F0066
:1005A00001309B008D221C089000971108009715C0
:1005B000080000309B009C019E2201309B003030DF
:1005C00090009C009E2202309B0006308F009C0011
:1005D0009E2210309B0002308E009C009E22113023
:1005E0009B0016308D009C009E229711080031233D
:1005F0009E309A004823AC309A0048239B309A00E2
:1006000048233923080031239E309A004823AC3018
:100610009A00482331239F309A00482350234423D3
:100620003923080031239E309A004823AA309A00CB
:10063000482331239F309A0048235023412319082F
:100640008C00502344239713991B971739230800D4
:1006500031239E309A004823EE309A0048233923F4
:100660000800831685140000051000008510831211
:10067000080083160510000085140000051483127D
:1006800008009A0158230800FF309A0058230800F8
:10069000F83058239A0D013E031D492B65230800AD
:1006A000F830990D65230000013E031D512B080011
:1006B00083169A1B05149A1F05108514000000006C
:1006C00000000000851083120800831605148514AD
:1006D000831205181914051C19108316851083122E
:1006E000080035309500950B732B08007F3095007E
:1006F00007309600950B7A2B960B7A2B0800762301
:100700007623762376230800A0019F0064301F0221
:10071000031C0800A00A852BA0019F000A301F02BD
:08072000031C0800A00A8D2B48
:02400E00F93F78
:00000001FF
