:020000000528D1
:08000800E62886011F30850087
:100010008316563081008601E030850083120C3053
:1000200084008001840A841E11281030840004306A
:1000300093009A00013090009800FF309D000F1649
:100040008101A0308B008F170F308504803086052A
:100050000F193F201F300F0584000008C3208600C1
:1000600003300F05CF201D0585008F0AD420011A0B
:100070008F138F1B3728011A37288F1724288316D0
:100080001E308600831206058C0003108C0D8C0D2B
:100090008316860183120C08783C0319BF28783038
:1000A0000E050C02031DB8289C0BC1288C19822850
:1000B0001D168F158C1E5F280C1F7528B2280C1F6B
:1000C000C128990A181C6D280A3019070D3C031D18
:1000D0006D2899010A309800B2280A301902031DD0
:1000E000B228990101309800B2289B0A0A301B02FD
:1000F000031DB2289B019A0A06301A02031DB2287A
:100100009A01B2280C1AC1288F118C1E8A280C1F44
:10011000A128B2280C1FB228AF20910A101C9928E0
:100120000A3011070D3C031D992891010A309000F7
:10013000B2280A301102031DB2289101013090004B
:10014000B228AF20930A0A301302031DB22893018C
:10015000920A06301202031DB2289201B2289501BC
:10016000940108009C08031DC12814309C00C1287C
:1001700087300E050C048E0003309C00C1288E01D0
:100180008F110F1108008207BF348634DB34CF345F
:10019000E634ED34FD348734FF34EF3480348207A5
:1001A000FE34FD34FB34F73410081802031D080038
:1001B00011081902031D080012081A02031D080085
:1001C00013081B02031D08001D1208009600030EF1
:1001D0009700831213210319F128950F1A29940A05
:1001E0001A2995019401930A0A301302031D1A2952
:1001F0009301920A06301202031D1A299201910AF4
:10020000101C0B290A3011070D3C031D0B2991010D
:100210000A3090001A290A301102031D1A2991018F
:10022000013090001A2927301502031D08000730FD
:10023000140208000B11170E8300960E160E09000B
:02400E00F93F78
:00000001FF
