:020000001328C3
:08000800CA2882075428682869
:1000100073288528820701340234043408341034EC
:100020002034403480343F30850086013C308700E6
:10003000831607309F00C0308500013086000330F2
:100040008700D23081000C14831281018E018F0150
:100050000F3090000C1050308B00A001A101A201C4
:10006000A401A8010B118B138B1B33288B208B173A
:100070003C200B1D39283228AC01A901AA01AB0193
:10008000A80A043028020319A80128080520290914
:100090003F3985002B09FC3987008713AB1B871775
:1000A0002A08FE39860008002108AC0007390A201A
:1000B000AA002A18AB173830AC050310AC0CAC0CF6
:1000C0002C0C0A20A900291B2B15A91BAB15080015
:1000D000220807390A20AA002A18AB17A21D2B16DE
:1000E000A219AB1608002208003C03192A162208A0
:1000F000033C0319AA162208063C03192A172208F2
:10010000093C0319AA17AB16080020182A17201C4F
:10011000AA17AB15080086013F3085003C308700E8
:10012000831607308600831206300605A300831667
:1001300001308600831223080319C52824020319FD
:10014000C528A50B08004B30A500A318B528A001B1
:10015000A10A3C302102031D0800A101A20A0C30B3
:100160002202031D0800A2010800A001A103FF3024
:100170002102031D08003B30A100A203FF30220230
:10018000031D08000B30A20008002308A400013062
:10019000A5000800A600030EA7008B18D8200C1895
:1001A000DF200618F328270E8300A60E260E09006E
:1001B0008B1086013C3087003F30850008000C1012
:1001C000A00A1E302002031D0800A001A10A3C3035
:1001D0002102031D0800A101A20A0C302202031D06
:0A01E0000800A20108006300CD280A
:02400E00B13FC0
:00000001FF
